{
  "contractName": "Lottery",
  "abi": [
    {
      "inputs": [],
      "payable": false,
      "stateMutability": "nonpayable",
      "type": "constructor"
    },
    {
      "anonymous": false,
      "inputs": [
        {
          "indexed": false,
          "internalType": "uint256",
          "name": "index",
          "type": "uint256"
        },
        {
          "indexed": false,
          "internalType": "address",
          "name": "bettor",
          "type": "address"
        },
        {
          "indexed": false,
          "internalType": "uint256",
          "name": "amount",
          "type": "uint256"
        },
        {
          "indexed": false,
          "internalType": "bytes1",
          "name": "challenges",
          "type": "bytes1"
        },
        {
          "indexed": false,
          "internalType": "uint256",
          "name": "answerBlockNumber",
          "type": "uint256"
        }
      ],
      "name": "BET",
      "type": "event"
    },
    {
      "constant": true,
      "inputs": [],
      "name": "owner",
      "outputs": [
        {
          "internalType": "address",
          "name": "",
          "type": "address"
        }
      ],
      "payable": false,
      "stateMutability": "view",
      "type": "function"
    },
    {
      "constant": true,
      "inputs": [],
      "name": "getPot",
      "outputs": [
        {
          "internalType": "uint256",
          "name": "value",
          "type": "uint256"
        }
      ],
      "payable": false,
      "stateMutability": "view",
      "type": "function"
    },
    {
      "constant": false,
      "inputs": [
        {
          "internalType": "bytes1",
          "name": "challenges",
          "type": "bytes1"
        }
      ],
      "name": "bet",
      "outputs": [
        {
          "internalType": "bool",
          "name": "result",
          "type": "bool"
        }
      ],
      "payable": true,
      "stateMutability": "payable",
      "type": "function"
    },
    {
      "constant": true,
      "inputs": [
        {
          "internalType": "uint256",
          "name": "index",
          "type": "uint256"
        }
      ],
      "name": "getBetInfo",
      "outputs": [
        {
          "internalType": "uint256",
          "name": "answerBlockNumber",
          "type": "uint256"
        },
        {
          "internalType": "address",
          "name": "bettor",
          "type": "address"
        },
        {
          "internalType": "bytes1",
          "name": "challenges",
          "type": "bytes1"
        }
      ],
      "payable": false,
      "stateMutability": "view",
      "type": "function"
    },
    {
      "constant": false,
      "inputs": [
        {
          "internalType": "bytes1",
          "name": "challenges",
          "type": "bytes1"
        }
      ],
      "name": "pushBet",
      "outputs": [
        {
          "internalType": "bool",
          "name": "",
          "type": "bool"
        }
      ],
      "payable": false,
      "stateMutability": "nonpayable",
      "type": "function"
    },
    {
      "constant": false,
      "inputs": [
        {
          "internalType": "uint256",
          "name": "index",
          "type": "uint256"
        }
      ],
      "name": "popBet",
      "outputs": [
        {
          "internalType": "bool",
          "name": "",
          "type": "bool"
        }
      ],
      "payable": false,
      "stateMutability": "nonpayable",
      "type": "function"
    }
  ],
  "bytecode": "0x608060405234801561001057600080fd5b5033600360006101000a81548173ffffffffffffffffffffffffffffffffffffffff021916908373ffffffffffffffffffffffffffffffffffffffff160217905550610815806100616000396000f3fe6080604052600436106100555760003560e01c8063032820961461005a578063403c9fa8146100cf57806379141f80146100fa5780638da5cb5b146101c7578063d04c9a8c1461021e578063f4b46f5b14610271575b600080fd5b34801561006657600080fd5b506100b56004803603602081101561007d57600080fd5b8101908080357effffffffffffffffffffffffffffffffffffffffffffffffffffffffffffff191690602001909291905050506102d9565b604051808215151515815260200191505060405180910390f35b3480156100db57600080fd5b506100e461041d565b6040518082815260200191505060405180910390f35b34801561010657600080fd5b506101336004803603602081101561011d57600080fd5b8101908080359060200190929190505050610427565b604051808481526020018373ffffffffffffffffffffffffffffffffffffffff1673ffffffffffffffffffffffffffffffffffffffff168152602001827effffffffffffffffffffffffffffffffffffffffffffffffffffffffffffff19167effffffffffffffffffffffffffffffffffffffffffffffffffffffffffffff19168152602001935050505060405180910390f35b3480156101d357600080fd5b506101dc61052c565b604051808273ffffffffffffffffffffffffffffffffffffffff1673ffffffffffffffffffffffffffffffffffffffff16815260200191505060405180910390f35b34801561022a57600080fd5b506102576004803603602081101561024157600080fd5b8101908080359060200190929190505050610552565b604051808215151515815260200191505060405180910390f35b6102bf6004803603602081101561028757600080fd5b8101908080357effffffffffffffffffffffffffffffffffffffffffffffffffffffffffffff191690602001909291905050506105b6565b604051808215151515815260200191505060405180910390f35b60006102e3610787565b33816020019073ffffffffffffffffffffffffffffffffffffffff16908173ffffffffffffffffffffffffffffffffffffffff1681525050600343018160000181815250508281604001907effffffffffffffffffffffffffffffffffffffffffffffffffffffffffffff191690817effffffffffffffffffffffffffffffffffffffffffffffffffffffffffffff1916815250508060026000805481526020019081526020016000206000820151816000015560208201518160010160006101000a81548173ffffffffffffffffffffffffffffffffffffffff021916908373ffffffffffffffffffffffffffffffffffffffff16021790555060408201518160010160146101000a81548160ff021916908360f81c021790555090505060008081548092919060010191905055506001915050919050565b6000600454905090565b6000806000610434610787565b60026000868152602001908152602001600020604051806060016040529081600082015481526020016001820160009054906101000a900473ffffffffffffffffffffffffffffffffffffffff1673ffffffffffffffffffffffffffffffffffffffff1673ffffffffffffffffffffffffffffffffffffffff1681526020016001820160149054906101000a900460f81b7effffffffffffffffffffffffffffffffffffffffffffffffffffffffffffff19167effffffffffffffffffffffffffffffffffffffffffffffffffffffffffffff1916815250509050806000015193508060200151925080604001519150509193909250565b600360009054906101000a900473ffffffffffffffffffffffffffffffffffffffff1681565b6000600260008381526020019081526020016000206000808201600090556001820160006101000a81549073ffffffffffffffffffffffffffffffffffffffff02191690556001820160146101000a81549060ff0219169055505060019050919050565b60006611c37937e080003414610634576040517f08c379a000000000000000000000000000000000000000000000000000000000815260040180806020018281038252600e8152602001807f4e6f7420456e6f7567682045544800000000000000000000000000000000000081525060200191505060405180910390fd5b61063d826102d9565b6106af576040517f08c379a000000000000000000000000000000000000000000000000000000000815260040180806020018281038252601a8152602001807f4661696c20746f206164642061206e65772042657720496e666f00000000000081525060200191505060405180910390fd5b7f100791de9f40bf2d56ffa6dc5597d2fd0b2703ea70bc7548cd74c04f5d215ab760016000540333348560034301604051808681526020018573ffffffffffffffffffffffffffffffffffffffff1673ffffffffffffffffffffffffffffffffffffffff168152602001848152602001837effffffffffffffffffffffffffffffffffffffffffffffffffffffffffffff19167effffffffffffffffffffffffffffffffffffffffffffffffffffffffffffff191681526020018281526020019550505050505060405180910390a160019050919050565b604051806060016040528060008152602001600073ffffffffffffffffffffffffffffffffffffffff16815260200160007effffffffffffffffffffffffffffffffffffffffffffffffffffffffffffff19168152509056fea265627a7a7231582079185e56ec7e15555e8ca5aeba03f254ac932f637e72658907da07511909a1f864736f6c63430005100032",
  "source": "pragma solidity >=0.4.21 <0.6.0;\n\ncontract Lottery {\n    struct BetInfo {\n        uint256 answerBlockNumber; // 맞출 블록의 넘버\n        address payable bettor; // 돈을 건 사람 주소, 특정주소에 돈을 보내려면 payable을 써줘야함\n        byte challenges; // 문제. ex) 0xab\n    }\n\n    // 매핑으로 큐를 구현하기 위한 변수\n    uint256 private _tail;\n    uint256 private _head;\n\n    // 키는 uint, 값은 BerInfo인 매핑\n    mapping (uint256 => BetInfo) private _bets;\n\n    address public owner;\n\n    uint256 constant internal BLOCK_LIMIT = 256; // 블록해시를 확인할 수 있는 제한\n    uint256 constant internal BET_BLOCK_INTERVAL = 3; // 2번 블록에서 베팅을 하면 5번 블록에서 결과가 나온다\n    uint256 constant internal BET_AMOUNT = 5 * 10 ** 15; // 0.005ETH\n\n    uint private _pot;\n\n    // 이벤트 로그들을 한번에 모을 수 있다, BET이라는 로그들을 찍어줘\n    // (몇번째 배팅인지, 누가 배팅했는지, 얼마 배팅했는지, 어떤글자로 베팅했는지, 어떤 블록에 정답이 있는지)\n    event BET(uint256 index, address bettor, uint256 amount, byte challenges, uint256 answerBlockNumber);\n    constructor() public {\n        owner = msg.sender; // msg.sender는 전역변수\n    }\n\n    function getPot() public view returns (uint256 value){ // 스마트 컨트랙의 변수를 가져와서 쓰려면 view 키ㅕ드를 쓴다\n        return _pot;\n    }\n\n    // Bet (베팅하기)\n    /*\n    @dev 베팅을 한다. 유저는 0.005ETH를 보내야하고 베팅용 1byte 글자를 보낸다, 큐에 저장된 베팅 정보는 이후 distribute 함수에서 해결한다\n    @param challenges 유저가 베팅하는 글자\n    @return 함수가 잘 수행되었는지 확인하는 bool 값\n    */\n    function bet(byte challenges) public payable returns (bool result){\n    // 돈이 제대로 왔는지 확인\n    // require는 if역할, msg.value는 컨트랙트가 받은금액, 문자열은 조건이 false때 출력할 문구\n    require(msg.value == BET_AMOUNT, \"Not Enough ETH\");\n\n    // 큐에 베팅정보를 넣기\n    require(pushBet(challenges), \"Fail to add a new Bew Info\");\n\n    // 이벤트 로그를 찍는다\n    emit BET(_tail - 1, msg.sender, msg.value, challenges, block.number + BET_BLOCK_INTERVAL);\n    return true;\n}\n    // 베팅한 값을 큐에 저장함\n\n    // Distribute (검증하기)\n    // 베팅한 값을 토대로 결과값을 검증\n    // 검증결과가 틀리면 팟머니에 돈을 넣고, 맞으면 돈을 유저에게 준다\n\n    // 베팅정보들을 담고있는 큐에서 베팅정보 가져오기\n    function getBetInfo(uint256 index) public view returns (uint256 answerBlockNumber, address bettor, byte challenges){\n        BetInfo memory b = _bets[index]; // memory형 변수는 함수가 끝나면 지워짐, storage형 변수는 블록에 영영 기록됨\n        answerBlockNumber = b.answerBlockNumber; // 반환값1\n        bettor = b.bettor; // 반환값2\n        challenges = b.challenges; // 반환값3\n    }\n\n    // 큐 push\n    function pushBet(byte challenges) public returns (bool){\n        BetInfo memory b; // 베팅정보를 하나 생성하고 세팅한다\n        b.bettor = msg.sender; // 함수 호출한 사람\n        b.answerBlockNumber = block.number + BET_BLOCK_INTERVAL; // block.number는 현재 이 트랜잭션이 들어가게되는 블록넘버를 가져온다\n        b.challenges = challenges; // 내가 베팅한 값\n\n        _bets[_tail] = b; // 큐에 넣고\n        _tail++; // 테일 포인터 조정\n\n        return true;\n    }\n\n    // 큐 pop\n    function popBet(uint256 index) public returns (bool){\n        // delete를 하면 가스를 돌려받는다. 왜? 상태데이터베이스에 저장된 값을 그냥 뽑아오겠다는 것이기에\n        // 그러니 필요하지 않은 값이 있다면 delete를 해주자\n        delete _bets[index];\n        return true;\n    }\n}\n",
  "sourcePath": "/Users/lsh/IdeaProjects/lottery-smart-contract/contracts/Lottery.sol",
  "compiler": {
    "name": "solc",
    "version": "0.5.16+commit.9c3226ce.Emscripten.clang"
  },
  "schemaVersion": "3.1.0",
  "updatedAt": "2022-06-23T17:37:15.907Z",
  "devdoc": {
    "methods": {}
  },
  "userdoc": {
    "methods": {}
  }
}