{
  "contractName": "Lottery",
  "abi": [
    {
      "inputs": [],
      "payable": false,
      "stateMutability": "nonpayable",
      "type": "constructor"
    },
    {
      "anonymous": false,
      "inputs": [
        {
          "indexed": false,
          "internalType": "uint256",
          "name": "index",
          "type": "uint256"
        },
        {
          "indexed": false,
          "internalType": "address",
          "name": "bettor",
          "type": "address"
        },
        {
          "indexed": false,
          "internalType": "uint256",
          "name": "amount",
          "type": "uint256"
        },
        {
          "indexed": false,
          "internalType": "bytes1",
          "name": "challenges",
          "type": "bytes1"
        },
        {
          "indexed": false,
          "internalType": "uint256",
          "name": "answerBlockNumber",
          "type": "uint256"
        }
      ],
      "name": "BET",
      "type": "event"
    },
    {
      "constant": true,
      "inputs": [],
      "name": "owner",
      "outputs": [
        {
          "internalType": "address",
          "name": "",
          "type": "address"
        }
      ],
      "payable": false,
      "stateMutability": "view",
      "type": "function"
    },
    {
      "constant": true,
      "inputs": [],
      "name": "getPot",
      "outputs": [
        {
          "internalType": "uint256",
          "name": "value",
          "type": "uint256"
        }
      ],
      "payable": false,
      "stateMutability": "view",
      "type": "function"
    },
    {
      "constant": false,
      "inputs": [
        {
          "internalType": "bytes1",
          "name": "challenges",
          "type": "bytes1"
        }
      ],
      "name": "bet",
      "outputs": [
        {
          "internalType": "bool",
          "name": "result",
          "type": "bool"
        }
      ],
      "payable": true,
      "stateMutability": "payable",
      "type": "function"
    },
    {
      "constant": false,
      "inputs": [],
      "name": "distribute",
      "outputs": [],
      "payable": false,
      "stateMutability": "nonpayable",
      "type": "function"
    },
    {
      "constant": true,
      "inputs": [
        {
          "internalType": "bytes1",
          "name": "challenges",
          "type": "bytes1"
        },
        {
          "internalType": "bytes32",
          "name": "answer",
          "type": "bytes32"
        }
      ],
      "name": "isMatch",
      "outputs": [
        {
          "internalType": "enum Lottery.BettingResult",
          "name": "",
          "type": "uint8"
        }
      ],
      "payable": false,
      "stateMutability": "pure",
      "type": "function"
    },
    {
      "constant": true,
      "inputs": [
        {
          "internalType": "uint256",
          "name": "index",
          "type": "uint256"
        }
      ],
      "name": "getBetInfo",
      "outputs": [
        {
          "internalType": "uint256",
          "name": "answerBlockNumber",
          "type": "uint256"
        },
        {
          "internalType": "address",
          "name": "bettor",
          "type": "address"
        },
        {
          "internalType": "bytes1",
          "name": "challenges",
          "type": "bytes1"
        }
      ],
      "payable": false,
      "stateMutability": "view",
      "type": "function"
    }
  ],
  "bytecode": "0x608060405234801561001057600080fd5b5033600360006101000a81548173ffffffffffffffffffffffffffffffffffffffff021916908373ffffffffffffffffffffffffffffffffffffffff160217905550610c93806100616000396000f3fe6080604052600436106100555760003560e01c8063403c9fa81461005a57806379141f80146100855780638da5cb5b1461015257806399a167d7146101a9578063e4fc6b6d14610232578063f4b46f5b14610249575b600080fd5b34801561006657600080fd5b5061006f6102b1565b6040518082815260200191505060405180910390f35b34801561009157600080fd5b506100be600480360360208110156100a857600080fd5b81019080803590602001909291905050506102bb565b604051808481526020018373ffffffffffffffffffffffffffffffffffffffff1673ffffffffffffffffffffffffffffffffffffffff168152602001827effffffffffffffffffffffffffffffffffffffffffffffffffffffffffffff19167effffffffffffffffffffffffffffffffffffffffffffffffffffffffffffff19168152602001935050505060405180910390f35b34801561015e57600080fd5b506101676103c0565b604051808273ffffffffffffffffffffffffffffffffffffffff1673ffffffffffffffffffffffffffffffffffffffff16815260200191505060405180910390f35b3480156101b557600080fd5b5061020e600480360360408110156101cc57600080fd5b8101908080357effffffffffffffffffffffffffffffffffffffffffffffffffffffffffffff19169060200190929190803590602001909291905050506103e6565b6040518082600281111561021e57fe5b60ff16815260200191505060405180910390f35b34801561023e57600080fd5b506102476106c1565b005b6102976004803603602081101561025f57600080fd5b8101908080357effffffffffffffffffffffffffffffffffffffffffffffffffffffffffffff1916906020019092919050505061083c565b604051808215151515815260200191505060405180910390f35b6000600454905090565b60008060006102c8610c05565b60026000868152602001908152602001600020604051806060016040529081600082015481526020016001820160009054906101000a900473ffffffffffffffffffffffffffffffffffffffff1673ffffffffffffffffffffffffffffffffffffffff1673ffffffffffffffffffffffffffffffffffffffff1681526020016001820160149054906101000a900460f81b7effffffffffffffffffffffffffffffffffffffffffffffffffffffffffffff19167effffffffffffffffffffffffffffffffffffffffffffffffffffffffffffff1916815250509050806000015193508060200151925080604001519150509193909250565b600360009054906101000a900473ffffffffffffffffffffffffffffffffffffffff1681565b600080839050600084905060008460006020811061040057fe5b1a60f81b905060008560006020811061041557fe5b1a60f81b90506004847effffffffffffffffffffffffffffffffffffffffffffffffffffffffffffff1916901c93506004847effffffffffffffffffffffffffffffffffffffffffffffffffffffffffffff1916901b93506004827effffffffffffffffffffffffffffffffffffffffffffffffffffffffffffff1916901c91506004827effffffffffffffffffffffffffffffffffffffffffffffffffffffffffffff1916901b91506004837effffffffffffffffffffffffffffffffffffffffffffffffffffffffffffff1916901b92506004837effffffffffffffffffffffffffffffffffffffffffffffffffffffffffffff1916901c92506004817effffffffffffffffffffffffffffffffffffffffffffffffffffffffffffff1916901b90506004817effffffffffffffffffffffffffffffffffffffffffffffffffffffffffffff1916901c9050837effffffffffffffffffffffffffffffffffffffffffffffffffffffffffffff1916827effffffffffffffffffffffffffffffffffffffffffffffffffffffffffffff19161480156105f95750827effffffffffffffffffffffffffffffffffffffffffffffffffffffffffffff1916817effffffffffffffffffffffffffffffffffffffffffffffffffffffffffffff1916145b1561060b5760019450505050506106bb565b837effffffffffffffffffffffffffffffffffffffffffffffffffffffffffffff1916827effffffffffffffffffffffffffffffffffffffffffffffffffffffffffffff191614806106a05750827effffffffffffffffffffffffffffffffffffffffffffffffffffffffffffff1916817effffffffffffffffffffffffffffffffffffffffffffffffffffffffffffff1916145b156106b25760029450505050506106bb565b60009450505050505b92915050565b60006106cb610c05565b600060015492505b6000548310156108375760026000848152602001908152602001600020604051806060016040529081600082015481526020016001820160009054906101000a900473ffffffffffffffffffffffffffffffffffffffff1673ffffffffffffffffffffffffffffffffffffffff1673ffffffffffffffffffffffffffffffffffffffff1681526020016001820160149054906101000a900460f81b7effffffffffffffffffffffffffffffffffffffffffffffffffffffffffffff19167effffffffffffffffffffffffffffffffffffffffffffffffffffffffffffff19168152505091506107c58260000151610a0d565b9050600060028111156107d457fe5b8160028111156107e057fe5b5050600160028111156107ef57fe5b8160028111156107fb57fe5b141561080657610837565b60028081111561081257fe5b81600281111561081e57fe5b505061082983610a5d565b5082806001019350506106d3565b505050565b60006611c37937e0800034146108ba576040517f08c379a000000000000000000000000000000000000000000000000000000000815260040180806020018281038252600e8152602001807f4e6f7420456e6f7567682045544800000000000000000000000000000000000081525060200191505060405180910390fd5b6108c382610ac1565b610935576040517f08c379a000000000000000000000000000000000000000000000000000000000815260040180806020018281038252601a8152602001807f4661696c20746f206164642061206e65772042657720496e666f00000000000081525060200191505060405180910390fd5b7f100791de9f40bf2d56ffa6dc5597d2fd0b2703ea70bc7548cd74c04f5d215ab760016000540333348560034301604051808681526020018573ffffffffffffffffffffffffffffffffffffffff1673ffffffffffffffffffffffffffffffffffffffff168152602001848152602001837effffffffffffffffffffffffffffffffffffffffffffffffffffffffffffff19167effffffffffffffffffffffffffffffffffffffffffffffffffffffffffffff191681526020018281526020019550505050505060405180910390a160019050919050565b60008143118015610a215750816101000143105b15610a2f5760009050610a58565b814311610a3f5760019050610a58565b61010082014310610a535760029050610a58565b600290505b919050565b6000600260008381526020019081526020016000206000808201600090556001820160006101000a81549073ffffffffffffffffffffffffffffffffffffffff02191690556001820160146101000a81549060ff0219169055505060019050919050565b6000610acb610c05565b33816020019073ffffffffffffffffffffffffffffffffffffffff16908173ffffffffffffffffffffffffffffffffffffffff1681525050600343018160000181815250508281604001907effffffffffffffffffffffffffffffffffffffffffffffffffffffffffffff191690817effffffffffffffffffffffffffffffffffffffffffffffffffffffffffffff1916815250508060026000805481526020019081526020016000206000820151816000015560208201518160010160006101000a81548173ffffffffffffffffffffffffffffffffffffffff021916908373ffffffffffffffffffffffffffffffffffffffff16021790555060408201518160010160146101000a81548160ff021916908360f81c021790555090505060008081548092919060010191905055506001915050919050565b604051806060016040528060008152602001600073ffffffffffffffffffffffffffffffffffffffff16815260200160007effffffffffffffffffffffffffffffffffffffffffffffffffffffffffffff19168152509056fea265627a7a723158202a5818cac3ca8e6b66540b3ca0611a40df2e54534ad0680028fcd1b12205646364736f6c63430005100032",
  "source": "pragma solidity >=0.4.21 <0.6.0;\n\ncontract Lottery {\n  struct BetInfo {\n    uint256 answerBlockNumber; // 맞출 블록의 넘버\n    address payable bettor; // 돈을 건 사람 주소, 특정주소에 돈을 보내려면 payable을 써줘야함\n    bytes1 challenges; // 문제. ex) 0xab\n  }\n\n  // 매핑으로 큐를 구현하기 위한 변수\n  uint256 private _tail;\n  uint256 private _head;\n\n  // 키는 uint, 값은 BerInfo인 매핑\n  mapping(uint256 => BetInfo) private _bets;\n\n  address public owner;\n\n  uint256 internal constant BLOCK_LIMIT = 256; // 블록해시를 확인할 수 있는 제한\n  uint256 internal constant BET_BLOCK_INTERVAL = 3; // 2번 블록에서 베팅을 하면 5번 블록에서 결과가 나온다\n  uint256 internal constant BET_AMOUNT = 5 * 10**15; // 0.005ETH\n\n  uint256 private _pot;\n\n  enum BlockStatus {Checkable, NotRevealed, BlockLimitPassed}\n  enum BettingResult {Fail, Win, Draw}\n\n  // 이벤트 로그들을 한번에 모을 수 있다, BET이라는 로그들을 찍어줘\n  // (몇번째 배팅인지, 누가 배팅했는지, 얼마 배팅했는지, 어떤글자로 베팅했는지, 어떤 블록에 정답이 있는지)\n  event BET(uint256 index, address bettor, uint256 amount, bytes1 challenges, uint256 answerBlockNumber);\n\n  constructor() public {\n    owner = msg.sender; // msg.sender는 전역변수\n  }\n\n  function getPot() public view returns (uint256 value) {\n    // 스마트 컨트랙의 변수를 가져와서 쓰려면 view 키ㅕ드를 쓴다\n    return _pot;\n  }\n\n  // Bet (베팅하기)\n  /**\n    @dev 베팅을 한다. 유저는 0.005ETH를 보내야하고 베팅용 1byte 글자를 보낸다, 큐에 저장된 베팅 정보는 이후 distribute 함수에서 해결한다\n    @param challenges 유저가 베팅하는 글자\n    @return 함수가 잘 수행되었는지 확인하는 bool 값\n  */\n  function bet(bytes1 challenges) public payable returns (bool result) {\n    // 돈이 제대로 왔는지 확인\n    // require는 if역할, msg.value는 컨트랙트가 받은금액, 문자열은 조건이 false때 출력할 문구\n    require(msg.value == BET_AMOUNT, 'Not Enough ETH');\n\n    // 큐에 베팅정보를 넣기\n    require(pushBet(challenges), 'Fail to add a new Bew Info');\n\n    // 이벤트 로그를 찍는다\n    // (몇번째 배팅인지, 누가 배팅했는지, 얼마 배팅했는지, 어떤글자로 베팅했는지, 어떤 블록에 정답이 있는지)\n    emit BET(_tail - 1, msg.sender, msg.value, challenges, block.number + BET_BLOCK_INTERVAL);\n    return true;\n  }\n\n  // 베팅한 값을 큐에 저장함\n\n  // Distribute (검증하기)\n  // 베팅한 값을 토대로 결과값을 검증\n  // 검증결과가 틀리면 팟머니에 돈을 넣고, 맞으면 돈을 유저에게 준다\n  function distribute() public {\n    uint256 cur; // 베팅큐의 현재 포인터\n    BetInfo memory b;\n    BlockStatus currentBlockStatus;\n    for(cur = _head; cur < _tail; cur++){\n      b = _bets[cur];\n      currentBlockStatus = getBlockStatus(b.answerBlockNumber); // 현재 결과를 볼 수 있는지를 확인함\n\n      // Checkable -> 결과 확인 가능\n      if(currentBlockStatus == BlockStatus.Checkable){\n        // win: 둘 다 맞췄을 때-> bettor가 pot을 가져감\n\n        // fail: 둘 다 틀렸을 때 -> bettor의 돈이 pot으로 감\n\n        // draw: 글자를 하나만 맞췄을 때 -> bettor의 돈을 환불\n\n      }\n\n      // NotRevealed -> 아직 채굴 안돼서 확인 불가\n      if(currentBlockStatus == BlockStatus.NotRevealed){\n        break;\n      }\n\n      // BlockLimitPassed -> 블록리밋 초과함\n      if(currentBlockStatus == BlockStatus.BlockLimitPassed){\n        // 환불해줘야함\n        // 환불이벤트를 emit\n\n      }\n\n      // queue pop\n      popBet(cur);\n    }\n  }\n\n/**\n* @dev 베팅글자와 정답을 확인한다\n* @param challenges 베팅 글자\n* @param answer 블럭해쉬\n* @return 정답결과\n */\n  function isMatch(byte challenges, bytes32 answer) public pure returns (BettingResult) {\n    // challenges: 0xab\n    // answer 0xab.......\n    // challenges와 answer의 첫번째 두번째 바이트를 뽑아와서 비교하기\n\n    byte c1 = challenges;\n    byte c2 = challenges;\n\n    byte a1 = answer[0]; // 0xab의 a위치가 뽑힘\n    byte a2 = answer[0];\n\n    c1 = c1 >> 4; // 4비트 쉬프트: 0xab -> 0x0a // 1010 1011 -> 0000 1010\n    c1 = c1 << 4; // 4비트 쉬프트: 0x0a -> 0xa0 // 0000 1010 -> 1010 0000\n\n    a1 = a1 >> 4;\n    a1 = a1 << 4; // 0xa0\n\n    c2 = c2 << 4; // 0xb0\n    c2 = c2 >> 4; // 0x0b\n\n    a2 = a2 << 4;\n    a2 = a2 >> 4;\n\n    // 둘 다 맞았을 때\n    if(a1 == c1 && a2 == c2){\n      return BettingResult.Win;\n    }\n\n    // 하나만 맞았을 때\n    if(a1 == c1 || a2 == c2){\n      return BettingResult.Draw;\n    }\n\n    // 둘 다 틀렸을 때\n    return BettingResult.Fail;\n  }\n\n  function getBlockStatus(uint256 answerBlockNumber) internal view returns (BlockStatus) {\n    // 블록 해쉬를 확인할 수 있을때\n    // 현재블록번호 > 정답블록번호 && 현재블록번호 - 블록리밋 < 정답블록번호\n    if (block.number > answerBlockNumber && block.number < BLOCK_LIMIT + answerBlockNumber) {\n      return BlockStatus.Checkable;\n    }\n\n    // 블록해쉬를 체크할 수 없을때(블록이 채굴되지 않았을때)\n    // 현재블록번호 <= 정답블록번호\n    if (block.number <= answerBlockNumber) {\n      return BlockStatus.NotRevealed;\n    }\n\n    // 블록 제한을 넘었을 때\n    // 현재블록번호 >= 정답블록번호 + 블록리밋\n    if (block.number >= answerBlockNumber + BLOCK_LIMIT) {\n      return BlockStatus.BlockLimitPassed;\n    }\n    return BlockStatus.BlockLimitPassed;\n  }\n\n  // 베팅정보들을 담고있는 큐에서 베팅정보 가져오기\n  function getBetInfo(uint256 index)\n    public\n    view\n    returns (\n      uint256 answerBlockNumber,\n      address bettor,\n    bytes1 challenges\n    )\n  {\n    BetInfo memory b = _bets[index]; // memory형 변수는 함수가 끝나면 지워짐, storage형 변수는 블록에 영영 기록됨\n    answerBlockNumber = b.answerBlockNumber; // 반환값1\n    bettor = b.bettor; // 반환값2\n    challenges = b.challenges; // 반환값3\n  }\n\n  // 큐 push\n  function pushBet(bytes1 challenges) internal returns (bool) {\n    BetInfo memory b; // 베팅정보를 하나 생성하고 세팅한다\n    b.bettor = msg.sender; // 함수 호출한 사람\n    b.answerBlockNumber = block.number + BET_BLOCK_INTERVAL; // block.number는 현재 이 트랜잭션이 들어가게되는 블록넘버를 가져온다\n    b.challenges = challenges; // 내가 베팅한 값\n\n    _bets[_tail] = b; // 큐에 넣고\n    _tail++; // 테일 포인터 조정\n\n    return true;\n  }\n\n  // 큐 pop\n  function popBet(uint256 index) internal returns (bool) {\n    // delete를 하면 가스를 돌려받는다. 왜? 상태데이터베이스에 저장된 값을 그냥 뽑아오겠다는 것이기에\n    // 그러니 필요하지 않은 값이 있다면 delete를 해주자\n    delete _bets[index];\n    return true;\n  }\n}\n",
  "sourcePath": "/Users/lsh/IdeaProjects/lottery-smart-contract/contracts/Lottery.sol",
  "compiler": {
    "name": "solc",
    "version": "0.5.16+commit.9c3226ce.Emscripten.clang"
  },
  "schemaVersion": "3.1.0",
  "updatedAt": "2022-07-04T16:20:45.793Z",
  "devdoc": {
    "methods": {
      "bet(bytes1)": {
        "details": "베팅을 한다. 유저는 0.005ETH를 보내야하고 베팅용 1byte 글자를 보낸다, 큐에 저장된 베팅 정보는 이후 distribute 함수에서 해결한다",
        "params": {
          "challenges": "유저가 베팅하는 글자"
        },
        "return": "함수가 잘 수행되었는지 확인하는 bool 값"
      },
      "isMatch(bytes1,bytes32)": {
        "details": "베팅글자와 정답을 확인한다",
        "params": {
          "answer": "블럭해쉬",
          "challenges": "베팅 글자"
        },
        "return": "정답결과"
      }
    }
  },
  "userdoc": {
    "methods": {}
  }
}